{
  "contractName": "Auth",
  "abi": [
    {
      "inputs": [
        {
          "internalType": "address",
          "name": "deployer",
          "type": "address"
        }
      ],
      "stateMutability": "nonpayable",
      "type": "constructor"
    },
    {
      "inputs": [
        {
          "internalType": "address",
          "name": "user",
          "type": "address"
        }
      ],
      "name": "isAdministrator",
      "outputs": [
        {
          "internalType": "bool",
          "name": "",
          "type": "bool"
        }
      ],
      "stateMutability": "view",
      "type": "function"
    }
  ],
  "bytecode": "0x608060405234801561000f575f80fd5b5060405161014838038061014883398101604081905261002e91610052565b5f80546001600160a01b0319166001600160a01b039290921691909117905561007f565b5f60208284031215610062575f80fd5b81516001600160a01b0381168114610078575f80fd5b9392505050565b60bd8061008b5f395ff3fe6080604052348015600e575f80fd5b50600436106026575f3560e01c80630a2eb30114602a575b5f80fd5b60486035366004605c565b5f546001600160a01b0391821691161490565b604051901515815260200160405180910390f35b5f60208284031215606b575f80fd5b81356001600160a01b03811681146080575f80fd5b939250505056fea2646970667358221220d93c7fa9966212e8d3ae2086b5730dd00a4f483e321c599b53413e6be05a2f7164736f6c63430008140033",
  "immutableReferences": {},
  "source": "// contracts/access-control/Auth.sol\n// SPDX-License-Identifier: MIT\npragma solidity ^0.8.0;\n\ncontract Auth {\n    address private _administrator;\n\n    constructor(address deployer) {\n        // Make the deployer of the contract the administrator\n        _administrator = deployer;\n    }\n\n    function isAdministrator(address user) public view returns (bool) {\n        return user == _administrator;\n    }\n}",
  "sourcePath": "/Users/dingchen/project/learn/contracts/access-control/Auth.sol",
  "compiler": {
    "name": "solc",
    "version": "0.8.20+commit.a1b79de6.Emscripten.clang"
  },
  "schemaVersion": "3.4.16",
  "updatedAt": "2024-07-02T09:50:38.907Z",
  "devdoc": {
    "kind": "dev",
    "methods": {},
    "version": 1
  },
  "userdoc": {
    "kind": "user",
    "methods": {},
    "version": 1
  }
}